:100000000C9458000C9400020C94D9010C948000BC
:100010000C9480000C9480000C9480000C94800060
:100020000C9480000C9480000C9480000C94800050
:100030000C9480000C9480000C9480000C94800040
:100040000C948F010C9480000C944D020C942702A8
:100050000C9480000C9480000C9480000C94800020
:100060000C9480000C948000000000002500280003
:100070002B0000000000240027002A0000000000E0
:1000800023002600290004040404040404040202DA
:100090000202020203030303030301020408102007
:1000A00040800102040810200102040810207F0291
:1000B00011241FBECFEFD8E0DEBFCDBF11E0A0E01E
:1000C000B1E0E2EEF6E002C005900D92A631B10774
:1000D000D9F721E0A6E1B1E001C01D92AE3DB20723
:1000E000E1F710E0C8E5D0E004C02197FE010E94CE
:1000F0006403C735D107C9F70E941E030C946F0330
:100100000C940000FC01538D448D252F30E0842F8A
:1001100090E0821B930B541710F0CF96089501972F
:100120000895FC01918D828D981761F0828DDF0119
:10013000A80FB11D5D968C91928D9F5F9F73928FDA
:1001400090E008958FEF9FEF0895FC01918D828DCF
:10015000981731F0828DE80FF11D858D90E008959C
:100160008FEF9FEF0895FC01918D228D892F90E0F4
:10017000805C9F4F821B91098F7399270895FC0122
:10018000848DDF01A80FB11DA35ABF4F2C91848D20
:1001900090E001968F739927848FA689B7892C9355
:1001A000A089B1898C9180648C93938D848D9813F0
:1001B00006C00288F389E02D80818F7D80830895B9
:1001C000EF92FF920F931F93CF93DF93EC0181E0A7
:1001D000888F9B8D8C8D981305C0E889F989808163
:1001E00085FD24C0F62E0B8D10E00F5F1F4F0F739F
:1001F0001127E02E8C8DE8120CC00FB607FCFACF49
:10020000E889F989808185FFF5CFCE010E94BF0082
:10021000F1CF8B8DFE01E80FF11DE35AFF4FF08205
:100220000B8FEA89FB898081806207C0EE89FF8994
:100230006083E889F98980818064808381E090E02F
:10024000DF91CF911F910F91FF90EF900895CF9381
:10025000DF93EC01888D8823C9F0EA89FB898081CE
:1002600085FD05C0A889B9898C9186FD0FC00FB6A0
:1002700007FCF5CF808185FFF2CFA889B9898C91E1
:1002800085FFEDCFCE010E94BF00E7CFDF91CF9178
:1002900008958FE191E00E94B30021E0892B09F4D9
:1002A00020E0822F089580E090E0892B29F00E94C1
:1002B000490181110C94000008950895CF92DF92B6
:1002C000EF92FF920F931F93CF93DF936C017A010C
:1002D0008B01C0E0D0E0CE15DF0589F0D8016D912B
:1002E0008D01D601ED91FC910190F081E02DC601C8
:1002F0000995892B11F47E0102C02196ECCFC7012C
:10030000DF91CF911F910F91FF90EF90DF90CF90F1
:100310000895089580E090E008950E946A031F9276
:100320000F920FB60F9211242F933F938F939F93A9
:10033000AF93BF9380911B0190911C01A0911D016F
:10034000B0911E0130911A0123E0230F2D3720F4C4
:100350000196A11DB11D05C026E8230F0296A11D1F
:10036000B11D20931A0180931B0190931C01A0934F
:100370001D01B0931E018091160190911701A0916B
:100380001801B09119010196A11DB11D80931601AC
:1003900090931701A0931801B0931901BF91AF91E9
:1003A0009F918F913F912F910F900FBE0F901F90B3
:1003B00018951F920F920FB60F9211242F933F930F
:1003C0004F935F936F937F938F939F93AF93BF935D
:1003D000EF93FF93E0910201F09103010995FF91E2
:1003E000EF91BF91AF919F918F917F916F915F91AD
:1003F0004F913F912F910F900FBE0F901F90189526
:100400001F920F920FB60F9211242F933F934F9389
:100410005F936F937F938F939F93AF93BF93EF936C
:10042000FF93E0910001F09101010995FF91EF9197
:10043000BF91AF919F918F917F916F915F914F91FC
:100440003F912F910F900FBE0F901F9018951F9204
:100450000F920FB60F9211242F933F934F935F93F8
:100460006F937F938F939F93AF93BF93EF93FF937C
:100470008FE191E00E94BF00FF91EF91BF91AF919A
:100480009F918F917F916F915F914F913F912F91AC
:100490000F900FBE0F901F9018951F920F920FB6DE
:1004A0000F9211242F938F939F93EF93FF93E091DB
:1004B0002F01F09130018081E0913501F0913601FA
:1004C00082FD12C09081809138018F5F8F732091DF
:1004D0003901821751F0E0913801F0E0E15EFE4F02
:1004E000958F8093380101C08081FF91EF919F919A
:1004F0008F912F910F900FBE0F901F901895CF9353
:10050000DF93109222011092210188EE93E0A0E087
:10051000B0E08093230190932401A0932501B09330
:10052000260188E091E09093200180931F0185ECE3
:1005300090E090932C0180932B0184EC90E09093B9
:100540002E0180932D0180EC90E0909330018093F8
:100550002F0181EC90E0909332018093310182EC85
:1005600090E0909334018093330186EC90E0909377
:1005700036018093350110923801109239011092A2
:100580003A0110923B01ECE9F0E02491E8E8F0E058
:1005900084918823C1F090E0880F991FFC01EE58E8
:1005A000FF4FC591D491FC01E859FF4FA591B4913B
:1005B0009FB7F8948881E22FE0958E2388838C91F1
:1005C000E823EC939FBFECE9F0E0E491E093D001E5
:1005D000E8E8F0E0E491F0E0EE0FFF1FE458FF4F91
:1005E000859194919093D2018093D1011092DB0177
:1005F0001092DD011092DC01EBEDF1E0129281E04E
:10060000E33DF807D9F780ED91E09093C301809323
:10061000C2011092C0011092C1011092BC0189E088
:100620008093BD0181E08093BE018093BF01109251
:10063000CF011092CE01DF91CF910895789484B5C7
:10064000826084BD84B5816084BD85B5826085BDCE
:1006500085B5816085BD80916E00816080936E005C
:10066000109281008091810082608093810080914E
:1006700081008160809381008091800081608093FF
:1006800080008091B10084608093B1008091B000BF
:1006900081608093B00080917A00846080937A00BA
:1006A00080917A00826080937A0080917A008160E4
:1006B00080937A0080917A00806880937A0010920B
:1006C000C1000E945301FDCFEE0FFF1F0590F49172
:1006D000E02D099481E090E0F8940C946F03F89475
:0206E000FFCF4A
:1006E2005D015D0100000000E0005E018200270163
:0606F200B3009100A50019
:00000001FF
